{
    "_format": "hh-sol-artifact-1",
    "contractName": "UserContract",
    "sourceName": "contracts/UserContract.sol",
    "abi": [
        {
            "anonymous": false,
            "inputs": [
                {
                    "indexed": true,
                    "internalType": "address",
                    "name": "userAddress",
                    "type": "address"
                },
                {
                    "indexed": false,
                    "internalType": "string",
                    "name": "username",
                    "type": "string"
                }
            ],
            "name": "UserRegistered",
            "type": "event"
        },
        {
            "inputs": [
                {
                    "internalType": "address",
                    "name": "_userAddress",
                    "type": "address"
                }
            ],
            "name": "getUser",
            "outputs": [
                {
                    "components": [
                        {
                            "internalType": "address",
                            "name": "userAddress",
                            "type": "address"
                        },
                        {
                            "internalType": "string",
                            "name": "username",
                            "type": "string"
                        },
                        {
                            "internalType": "string",
                            "name": "profileImageCID",
                            "type": "string"
                        }
                    ],
                    "internalType": "struct UserContract.User",
                    "name": "",
                    "type": "tuple"
                }
            ],
            "stateMutability": "view",
            "type": "function"
        },
        {
            "inputs": [
                {
                    "internalType": "string",
                    "name": "_username",
                    "type": "string"
                },
                {
                    "internalType": "string",
                    "name": "_profileImageCID",
                    "type": "string"
                }
            ],
            "name": "register",
            "outputs": [],
            "stateMutability": "nonpayable",
            "type": "function"
        },
        {
            "inputs": [
                {
                    "internalType": "address",
                    "name": "",
                    "type": "address"
                }
            ],
            "name": "users",
            "outputs": [
                {
                    "internalType": "address",
                    "name": "userAddress",
                    "type": "address"
                },
                {
                    "internalType": "string",
                    "name": "username",
                    "type": "string"
                },
                {
                    "internalType": "string",
                    "name": "profileImageCID",
                    "type": "string"
                }
            ],
            "stateMutability": "view",
            "type": "function"
        }
    ],
    "bytecode": "0x6080604052348015600f57600080fd5b50610e988061001f6000396000f3fe608060405234801561001057600080fd5b50600436106100415760003560e01c80633ffbd47f146100465780636f77926b14610062578063a87430ba14610092575b600080fd5b610060600480360381019061005b91906107d8565b6100c4565b005b61007c600480360381019061007791906108ae565b61028b565b60405161008991906109c0565b60405180910390f35b6100ac60048036038101906100a791906108ae565b6104ed565b6040516100bb93929190610a3b565b60405180910390f35b60008060003373ffffffffffffffffffffffffffffffffffffffff1673ffffffffffffffffffffffffffffffffffffffff168152602001908152602001600020600101805461011290610aaf565b905014610154576040517f08c379a000000000000000000000000000000000000000000000000000000000815260040161014b90610b2c565b60405180910390fd5b60405180606001604052803373ffffffffffffffffffffffffffffffffffffffff168152602001838152602001828152506000803373ffffffffffffffffffffffffffffffffffffffff1673ffffffffffffffffffffffffffffffffffffffff16815260200190815260200160002060008201518160000160006101000a81548173ffffffffffffffffffffffffffffffffffffffff021916908373ffffffffffffffffffffffffffffffffffffffff160217905550602082015181600101908161021f9190610d02565b5060408201518160020190816102359190610d02565b509050503373ffffffffffffffffffffffffffffffffffffffff167f48cac28ad4dc618e15f4c2dd5e97751182f166de97b25618318b2112aa951a2f8360405161027f9190610dd4565b60405180910390a25050565b610293610647565b60008060008473ffffffffffffffffffffffffffffffffffffffff1673ffffffffffffffffffffffffffffffffffffffff16815260200190815260200160002060010180546102e190610aaf565b905011610323576040517f08c379a000000000000000000000000000000000000000000000000000000000815260040161031a90610e42565b60405180910390fd5b6000808373ffffffffffffffffffffffffffffffffffffffff1673ffffffffffffffffffffffffffffffffffffffff1681526020019081526020016000206040518060600160405290816000820160009054906101000a900473ffffffffffffffffffffffffffffffffffffffff1673ffffffffffffffffffffffffffffffffffffffff1673ffffffffffffffffffffffffffffffffffffffff1681526020016001820180546103d290610aaf565b80601f01602080910402602001604051908101604052809291908181526020018280546103fe90610aaf565b801561044b5780601f106104205761010080835404028352916020019161044b565b820191906000526020600020905b81548152906001019060200180831161042e57829003601f168201915b5050505050815260200160028201805461046490610aaf565b80601f016020809104026020016040519081016040528092919081815260200182805461049090610aaf565b80156104dd5780601f106104b2576101008083540402835291602001916104dd565b820191906000526020600020905b8154815290600101906020018083116104c057829003601f168201915b5050505050815250509050919050565b60006020528060005260406000206000915090508060000160009054906101000a900473ffffffffffffffffffffffffffffffffffffffff169080600101805461053690610aaf565b80601f016020809104026020016040519081016040528092919081815260200182805461056290610aaf565b80156105af5780601f10610584576101008083540402835291602001916105af565b820191906000526020600020905b81548152906001019060200180831161059257829003601f168201915b5050505050908060020180546105c490610aaf565b80601f01602080910402602001604051908101604052809291908181526020018280546105f090610aaf565b801561063d5780601f106106125761010080835404028352916020019161063d565b820191906000526020600020905b81548152906001019060200180831161062057829003601f168201915b5050505050905083565b6040518060600160405280600073ffffffffffffffffffffffffffffffffffffffff16815260200160608152602001606081525090565b6000604051905090565b600080fd5b600080fd5b600080fd5b600080fd5b6000601f19601f8301169050919050565b7f4e487b7100000000000000000000000000000000000000000000000000000000600052604160045260246000fd5b6106e58261069c565b810181811067ffffffffffffffff82111715610704576107036106ad565b5b80604052505050565b600061071761067e565b905061072382826106dc565b919050565b600067ffffffffffffffff821115610743576107426106ad565b5b61074c8261069c565b9050602081019050919050565b82818337600083830152505050565b600061077b61077684610728565b61070d565b90508281526020810184848401111561079757610796610697565b5b6107a2848285610759565b509392505050565b600082601f8301126107bf576107be610692565b5b81356107cf848260208601610768565b91505092915050565b600080604083850312156107ef576107ee610688565b5b600083013567ffffffffffffffff81111561080d5761080c61068d565b5b610819858286016107aa565b925050602083013567ffffffffffffffff81111561083a5761083961068d565b5b610846858286016107aa565b9150509250929050565b600073ffffffffffffffffffffffffffffffffffffffff82169050919050565b600061087b82610850565b9050919050565b61088b81610870565b811461089657600080fd5b50565b6000813590506108a881610882565b92915050565b6000602082840312156108c4576108c3610688565b5b60006108d284828501610899565b91505092915050565b6108e481610870565b82525050565b600081519050919050565b600082825260208201905092915050565b60005b83811015610924578082015181840152602081019050610909565b60008484015250505050565b600061093b826108ea565b61094581856108f5565b9350610955818560208601610906565b61095e8161069c565b840191505092915050565b600060608301600083015161098160008601826108db565b50602083015184820360208601526109998282610930565b915050604083015184820360408601526109b38282610930565b9150508091505092915050565b600060208201905081810360008301526109da8184610969565b905092915050565b6109eb81610870565b82525050565b600082825260208201905092915050565b6000610a0d826108ea565b610a1781856109f1565b9350610a27818560208601610906565b610a308161069c565b840191505092915050565b6000606082019050610a5060008301866109e2565b8181036020830152610a628185610a02565b90508181036040830152610a768184610a02565b9050949350505050565b7f4e487b7100000000000000000000000000000000000000000000000000000000600052602260045260246000fd5b60006002820490506001821680610ac757607f821691505b602082108103610ada57610ad9610a80565b5b50919050565b7f5573657220616c72656164792072656769737465726564000000000000000000600082015250565b6000610b166017836109f1565b9150610b2182610ae0565b602082019050919050565b60006020820190508181036000830152610b4581610b09565b9050919050565b60008190508160005260206000209050919050565b60006020601f8301049050919050565b600082821b905092915050565b600060088302610bae7fffffffffffffffffffffffffffffffffffffffffffffffffffffffffffffffff82610b71565b610bb88683610b71565b95508019841693508086168417925050509392505050565b6000819050919050565b6000819050919050565b6000610bff610bfa610bf584610bd0565b610bda565b610bd0565b9050919050565b6000819050919050565b610c1983610be4565b610c2d610c2582610c06565b848454610b7e565b825550505050565b600090565b610c42610c35565b610c4d818484610c10565b505050565b5b81811015610c7157610c66600082610c3a565b600181019050610c53565b5050565b601f821115610cb657610c8781610b4c565b610c9084610b61565b81016020851015610c9f578190505b610cb3610cab85610b61565b830182610c52565b50505b505050565b600082821c905092915050565b6000610cd960001984600802610cbb565b1980831691505092915050565b6000610cf28383610cc8565b9150826002028217905092915050565b610d0b826108ea565b67ffffffffffffffff811115610d2457610d236106ad565b5b610d2e8254610aaf565b610d39828285610c75565b600060209050601f831160018114610d6c5760008415610d5a578287015190505b610d648582610ce6565b865550610dcc565b601f198416610d7a86610b4c565b60005b82811015610da257848901518255600182019150602085019450602081019050610d7d565b86831015610dbf5784890151610dbb601f891682610cc8565b8355505b6001600288020188555050505b505050505050565b60006020820190508181036000830152610dee8184610a02565b905092915050565b7f55736572206e6f7420666f756e64000000000000000000000000000000000000600082015250565b6000610e2c600e836109f1565b9150610e3782610df6565b602082019050919050565b60006020820190508181036000830152610e5b81610e1f565b905091905056fea2646970667358221220b84f35039739cc0dfb3b9f07ae4f7b0d4731c9ad357d2a7fd3a1922e80fbcd5764736f6c634300081c0033",
    "linkReferences": {},
    "deployedLinkReferences": {}
}