{
  "_format": "hh-sol-artifact-1",
  "contractName": "UserContractMeta",
  "sourceName": "contracts/UserContractMeta.sol",
  "abi": [
    {
      "inputs": [
        {
          "internalType": "uint256",
          "name": "value",
          "type": "uint256"
        },
        {
          "internalType": "uint256",
          "name": "length",
          "type": "uint256"
        }
      ],
      "name": "StringsInsufficientHexLength",
      "type": "error"
    },
    {
      "anonymous": false,
      "inputs": [
        {
          "indexed": true,
          "internalType": "address",
          "name": "userAddress",
          "type": "address"
        },
        {
          "indexed": false,
          "internalType": "string",
          "name": "username",
          "type": "string"
        },
        {
          "indexed": false,
          "internalType": "string",
          "name": "phone",
          "type": "string"
        },
        {
          "indexed": false,
          "internalType": "string",
          "name": "about",
          "type": "string"
        }
      ],
      "name": "UserRegistered",
      "type": "event"
    },
    {
      "inputs": [
        {
          "internalType": "address",
          "name": "_userAddress",
          "type": "address"
        }
      ],
      "name": "getUser",
      "outputs": [
        {
          "components": [
            {
              "internalType": "address",
              "name": "userAddress",
              "type": "address"
            },
            {
              "internalType": "string",
              "name": "username",
              "type": "string"
            },
            {
              "internalType": "string",
              "name": "phone",
              "type": "string"
            },
            {
              "internalType": "string",
              "name": "about",
              "type": "string"
            },
            {
              "internalType": "string",
              "name": "profileImageCID",
              "type": "string"
            }
          ],
          "internalType": "struct UserContractMeta.User",
          "name": "",
          "type": "tuple"
        }
      ],
      "stateMutability": "view",
      "type": "function"
    },
    {
      "inputs": [
        {
          "internalType": "string",
          "name": "_username",
          "type": "string"
        },
        {
          "internalType": "string",
          "name": "_phone",
          "type": "string"
        },
        {
          "internalType": "string",
          "name": "_about",
          "type": "string"
        },
        {
          "internalType": "string",
          "name": "_profileImageCID",
          "type": "string"
        }
      ],
      "name": "register",
      "outputs": [],
      "stateMutability": "nonpayable",
      "type": "function"
    },
    {
      "inputs": [
        {
          "internalType": "address",
          "name": "_user",
          "type": "address"
        },
        {
          "internalType": "string",
          "name": "_username",
          "type": "string"
        },
        {
          "internalType": "string",
          "name": "_phone",
          "type": "string"
        },
        {
          "internalType": "string",
          "name": "_about",
          "type": "string"
        },
        {
          "internalType": "string",
          "name": "_profileImageCID",
          "type": "string"
        },
        {
          "internalType": "bytes",
          "name": "_signature",
          "type": "bytes"
        }
      ],
      "name": "registerWithSig",
      "outputs": [],
      "stateMutability": "nonpayable",
      "type": "function"
    },
    {
      "inputs": [
        {
          "internalType": "address",
          "name": "",
          "type": "address"
        }
      ],
      "name": "users",
      "outputs": [
        {
          "internalType": "address",
          "name": "userAddress",
          "type": "address"
        },
        {
          "internalType": "string",
          "name": "username",
          "type": "string"
        },
        {
          "internalType": "string",
          "name": "phone",
          "type": "string"
        },
        {
          "internalType": "string",
          "name": "about",
          "type": "string"
        },
        {
          "internalType": "string",
          "name": "profileImageCID",
          "type": "string"
        }
      ],
      "stateMutability": "view",
      "type": "function"
    }
  ],
  "bytecode": "0x608060405234801561001057600080fd5b50612034806100206000396000f3fe608060405234801561001057600080fd5b506004361061004c5760003560e01c80630e24c52c146100515780636f77926b1461006d578063a43039a61461009d578063a87430ba146100b9575b600080fd5b61006b60048036038101906100669190611130565b6100ed565b005b61008760048036038101906100829190611265565b6102f2565b60405161009491906113ab565b60405180910390f35b6100b760048036038101906100b2919061146e565b610678565b005b6100d360048036038101906100ce9190611265565b61091c565b6040516100e49594939291906115e0565b60405180910390f35b60008060003373ffffffffffffffffffffffffffffffffffffffff1673ffffffffffffffffffffffffffffffffffffffff168152602001908152602001600020600101805461013b9061167e565b90501461017d576040517f08c379a0000000000000000000000000000000000000000000000000000000008152600401610174906116fb565b60405180910390fd5b6040518060a001604052803373ffffffffffffffffffffffffffffffffffffffff168152602001858152602001848152602001838152602001828152506000803373ffffffffffffffffffffffffffffffffffffffff1673ffffffffffffffffffffffffffffffffffffffff16815260200190815260200160002060008201518160000160006101000a81548173ffffffffffffffffffffffffffffffffffffffff021916908373ffffffffffffffffffffffffffffffffffffffff160217905550602082015181600101908161025491906118d1565b50604082015181600201908161026a91906118d1565b50606082015181600301908161028091906118d1565b50608082015181600401908161029691906118d1565b509050503373ffffffffffffffffffffffffffffffffffffffff167f509c70f523067009f7db7f46db6956d7af8b679323680dc3821a8bad001ac1e18585856040516102e4939291906119a3565b60405180910390a250505050565b6102fa610f91565b60008060008473ffffffffffffffffffffffffffffffffffffffff1673ffffffffffffffffffffffffffffffffffffffff16815260200190815260200160002060010180546103489061167e565b90501161038a576040517f08c379a000000000000000000000000000000000000000000000000000000000815260040161038190611a3b565b60405180910390fd5b6000808373ffffffffffffffffffffffffffffffffffffffff1673ffffffffffffffffffffffffffffffffffffffff1681526020019081526020016000206040518060a00160405290816000820160009054906101000a900473ffffffffffffffffffffffffffffffffffffffff1673ffffffffffffffffffffffffffffffffffffffff1673ffffffffffffffffffffffffffffffffffffffff1681526020016001820180546104399061167e565b80601f01602080910402602001604051908101604052809291908181526020018280546104659061167e565b80156104b25780601f10610487576101008083540402835291602001916104b2565b820191906000526020600020905b81548152906001019060200180831161049557829003601f168201915b505050505081526020016002820180546104cb9061167e565b80601f01602080910402602001604051908101604052809291908181526020018280546104f79061167e565b80156105445780601f1061051957610100808354040283529160200191610544565b820191906000526020600020905b81548152906001019060200180831161052757829003601f168201915b5050505050815260200160038201805461055d9061167e565b80601f01602080910402602001604051908101604052809291908181526020018280546105899061167e565b80156105d65780601f106105ab576101008083540402835291602001916105d6565b820191906000526020600020905b8154815290600101906020018083116105b957829003601f168201915b505050505081526020016004820180546105ef9061167e565b80601f016020809104026020016040519081016040528092919081815260200182805461061b9061167e565b80156106685780601f1061063d57610100808354040283529160200191610668565b820191906000526020600020905b81548152906001019060200180831161064b57829003601f168201915b5050505050815250509050919050565b60008060008873ffffffffffffffffffffffffffffffffffffffff1673ffffffffffffffffffffffffffffffffffffffff16815260200190815260200160002060010180546106c69061167e565b905014610708576040517f08c379a00000000000000000000000000000000000000000000000000000000081526004016106ff90611aa7565b60405180910390fd5b60006107178787878787610b92565b9050600061072482610bee565b905060006107328285610c1e565b90508873ffffffffffffffffffffffffffffffffffffffff168173ffffffffffffffffffffffffffffffffffffffff16146107a2576040517f08c379a000000000000000000000000000000000000000000000000000000000815260040161079990611b39565b60405180910390fd5b6040518060a001604052808a73ffffffffffffffffffffffffffffffffffffffff168152602001898152602001888152602001878152602001868152506000808b73ffffffffffffffffffffffffffffffffffffffff1673ffffffffffffffffffffffffffffffffffffffff16815260200190815260200160002060008201518160000160006101000a81548173ffffffffffffffffffffffffffffffffffffffff021916908373ffffffffffffffffffffffffffffffffffffffff160217905550602082015181600101908161087991906118d1565b50604082015181600201908161088f91906118d1565b5060608201518160030190816108a591906118d1565b5060808201518160040190816108bb91906118d1565b509050508873ffffffffffffffffffffffffffffffffffffffff167f509c70f523067009f7db7f46db6956d7af8b679323680dc3821a8bad001ac1e1898989604051610909939291906119a3565b60405180910390a2505050505050505050565b60006020528060005260406000206000915090508060000160009054906101000a900473ffffffffffffffffffffffffffffffffffffffff16908060010180546109659061167e565b80601f01602080910402602001604051908101604052809291908181526020018280546109919061167e565b80156109de5780601f106109b3576101008083540402835291602001916109de565b820191906000526020600020905b8154815290600101906020018083116109c157829003601f168201915b5050505050908060020180546109f39061167e565b80601f0160208091040260200160405190810160405280929190818152602001828054610a1f9061167e565b8015610a6c5780601f10610a4157610100808354040283529160200191610a6c565b820191906000526020600020905b815481529060010190602001808311610a4f57829003601f168201915b505050505090806003018054610a819061167e565b80601f0160208091040260200160405190810160405280929190818152602001828054610aad9061167e565b8015610afa5780601f10610acf57610100808354040283529160200191610afa565b820191906000526020600020905b815481529060010190602001808311610add57829003601f168201915b505050505090806004018054610b0f9061167e565b80601f0160208091040260200160405190810160405280929190818152602001828054610b3b9061167e565b8015610b885780601f10610b5d57610100808354040283529160200191610b88565b820191906000526020600020905b815481529060010190602001808311610b6b57829003601f168201915b5050505050905085565b6000610bb58673ffffffffffffffffffffffffffffffffffffffff166014610d4b565b85858585604051602001610bcd959493929190611c2d565b60405160208183030381529060405280519060200120905095945050505050565b600081604051602001610c019190611d26565b604051602081830303815290604052805190602001209050919050565b60006041825114610c64576040517f08c379a0000000000000000000000000000000000000000000000000000000008152600401610c5b90611d98565b60405180910390fd5b60008060006020850151925060408501519150606085015160001a9050601b8160ff161015610c9d57601b81610c9a9190611df4565b90505b601b8160ff161480610cb25750601c8160ff16145b610cf1576040517f08c379a0000000000000000000000000000000000000000000000000000000008152600401610ce890611e75565b60405180910390fd5b60018682858560405160008152602001604052604051610d149493929190611eb3565b6020604051602081039080840390855afa158015610d36573d6000803e3d6000fd5b50505060206040510351935050505092915050565b6060600083905060006002846002610d639190611ef8565b610d6d9190611f3a565b67ffffffffffffffff811115610d8657610d85611005565b5b6040519080825280601f01601f191660200182016040528015610db85781602001600182028036833780820191505090505b5090507f300000000000000000000000000000000000000000000000000000000000000081600081518110610df057610def611f6e565b5b60200101907effffffffffffffffffffffffffffffffffffffffffffffffffffffffffffff1916908160001a9053507f780000000000000000000000000000000000000000000000000000000000000081600181518110610e5457610e53611f6e565b5b60200101907effffffffffffffffffffffffffffffffffffffffffffffffffffffffffffff1916908160001a90535060006001856002610e949190611ef8565b610e9e9190611f3a565b90505b6001811115610f3e577f3031323334353637383961626364656600000000000000000000000000000000600f841660108110610ee057610edf611f6e565b5b1a60f81b828281518110610ef757610ef6611f6e565b5b60200101907effffffffffffffffffffffffffffffffffffffffffffffffffffffffffffff1916908160001a905350600483901c925080610f3790611f9d565b9050610ea1565b5060008214610f865784846040517fe22e27eb000000000000000000000000000000000000000000000000000000008152600401610f7d929190611fd5565b60405180910390fd5b809250505092915050565b6040518060a00160405280600073ffffffffffffffffffffffffffffffffffffffff168152602001606081526020016060815260200160608152602001606081525090565b6000604051905090565b600080fd5b600080fd5b600080fd5b600080fd5b6000601f19601f8301169050919050565b7f4e487b7100000000000000000000000000000000000000000000000000000000600052604160045260246000fd5b61103d82610ff4565b810181811067ffffffffffffffff8211171561105c5761105b611005565b5b80604052505050565b600061106f610fd6565b905061107b8282611034565b919050565b600067ffffffffffffffff82111561109b5761109a611005565b5b6110a482610ff4565b9050602081019050919050565b82818337600083830152505050565b60006110d36110ce84611080565b611065565b9050828152602081018484840111156110ef576110ee610fef565b5b6110fa8482856110b1565b509392505050565b600082601f83011261111757611116610fea565b5b81356111278482602086016110c0565b91505092915050565b6000806000806080858703121561114a57611149610fe0565b5b600085013567ffffffffffffffff81111561116857611167610fe5565b5b61117487828801611102565b945050602085013567ffffffffffffffff81111561119557611194610fe5565b5b6111a187828801611102565b935050604085013567ffffffffffffffff8111156111c2576111c1610fe5565b5b6111ce87828801611102565b925050606085013567ffffffffffffffff8111156111ef576111ee610fe5565b5b6111fb87828801611102565b91505092959194509250565b600073ffffffffffffffffffffffffffffffffffffffff82169050919050565b600061123282611207565b9050919050565b61124281611227565b811461124d57600080fd5b50565b60008135905061125f81611239565b92915050565b60006020828403121561127b5761127a610fe0565b5b600061128984828501611250565b91505092915050565b61129b81611227565b82525050565b600081519050919050565b600082825260208201905092915050565b60005b838110156112db5780820151818401526020810190506112c0565b60008484015250505050565b60006112f2826112a1565b6112fc81856112ac565b935061130c8185602086016112bd565b61131581610ff4565b840191505092915050565b600060a0830160008301516113386000860182611292565b506020830151848203602086015261135082826112e7565b9150506040830151848203604086015261136a82826112e7565b9150506060830151848203606086015261138482826112e7565b9150506080830151848203608086015261139e82826112e7565b9150508091505092915050565b600060208201905081810360008301526113c58184611320565b905092915050565b600067ffffffffffffffff8211156113e8576113e7611005565b5b6113f182610ff4565b9050602081019050919050565b600061141161140c846113cd565b611065565b90508281526020810184848401111561142d5761142c610fef565b5b6114388482856110b1565b509392505050565b600082601f83011261145557611454610fea565b5b81356114658482602086016113fe565b91505092915050565b60008060008060008060c0878903121561148b5761148a610fe0565b5b600061149989828a01611250565b965050602087013567ffffffffffffffff8111156114ba576114b9610fe5565b5b6114c689828a01611102565b955050604087013567ffffffffffffffff8111156114e7576114e6610fe5565b5b6114f389828a01611102565b945050606087013567ffffffffffffffff81111561151457611513610fe5565b5b61152089828a01611102565b935050608087013567ffffffffffffffff81111561154157611540610fe5565b5b61154d89828a01611102565b92505060a087013567ffffffffffffffff81111561156e5761156d610fe5565b5b61157a89828a01611440565b9150509295509295509295565b61159081611227565b82525050565b600082825260208201905092915050565b60006115b2826112a1565b6115bc8185611596565b93506115cc8185602086016112bd565b6115d581610ff4565b840191505092915050565b600060a0820190506115f56000830188611587565b818103602083015261160781876115a7565b9050818103604083015261161b81866115a7565b9050818103606083015261162f81856115a7565b9050818103608083015261164381846115a7565b90509695505050505050565b7f4e487b7100000000000000000000000000000000000000000000000000000000600052602260045260246000fd5b6000600282049050600182168061169657607f821691505b6020821081036116a9576116a861164f565b5b50919050565b7f416c726561647920726567697374657265640000000000000000000000000000600082015250565b60006116e5601283611596565b91506116f0826116af565b602082019050919050565b60006020820190508181036000830152611714816116d8565b9050919050565b60008190508160005260206000209050919050565b60006020601f8301049050919050565b600082821b905092915050565b60006008830261177d7fffffffffffffffffffffffffffffffffffffffffffffffffffffffffffffffff82611740565b6117878683611740565b95508019841693508086168417925050509392505050565b6000819050919050565b6000819050919050565b60006117ce6117c96117c48461179f565b6117a9565b61179f565b9050919050565b6000819050919050565b6117e8836117b3565b6117fc6117f4826117d5565b84845461174d565b825550505050565b600090565b611811611804565b61181c8184846117df565b505050565b5b8181101561184057611835600082611809565b600181019050611822565b5050565b601f821115611885576118568161171b565b61185f84611730565b8101602085101561186e578190505b61188261187a85611730565b830182611821565b50505b505050565b600082821c905092915050565b60006118a86000198460080261188a565b1980831691505092915050565b60006118c18383611897565b9150826002028217905092915050565b6118da826112a1565b67ffffffffffffffff8111156118f3576118f2611005565b5b6118fd825461167e565b611908828285611844565b600060209050601f83116001811461193b5760008415611929578287015190505b61193385826118b5565b86555061199b565b601f1984166119498661171b565b60005b828110156119715784890151825560018201915060208501945060208101905061194c565b8683101561198e578489015161198a601f891682611897565b8355505b6001600288020188555050505b505050505050565b600060608201905081810360008301526119bd81866115a7565b905081810360208301526119d181856115a7565b905081810360408301526119e581846115a7565b9050949350505050565b7f55736572206e6f7420666f756e64000000000000000000000000000000000000600082015250565b6000611a25600e83611596565b9150611a30826119ef565b602082019050919050565b60006020820190508181036000830152611a5481611a18565b9050919050565b7f5573657220616c72656164792072656769737465726564000000000000000000600082015250565b6000611a91601783611596565b9150611a9c82611a5b565b602082019050919050565b60006020820190508181036000830152611ac081611a84565b9050919050565b7f5369676e617475726520696e76616c6964206f722075736572206d69736d617460008201527f6368000000000000000000000000000000000000000000000000000000000000602082015250565b6000611b23602283611596565b9150611b2e82611ac7565b604082019050919050565b60006020820190508181036000830152611b5281611b16565b9050919050565b600081905092915050565b7f52656769737465723a0000000000000000000000000000000000000000000000600082015250565b6000611b9a600983611b59565b9150611ba582611b64565b600982019050919050565b6000611bbb826112a1565b611bc58185611b59565b9350611bd58185602086016112bd565b80840191505092915050565b7f3a00000000000000000000000000000000000000000000000000000000000000600082015250565b6000611c17600183611b59565b9150611c2282611be1565b600182019050919050565b6000611c3882611b8d565b9150611c448288611bb0565b9150611c4f82611c0a565b9150611c5b8287611bb0565b9150611c6682611c0a565b9150611c728286611bb0565b9150611c7d82611c0a565b9150611c898285611bb0565b9150611c9482611c0a565b9150611ca08284611bb0565b91508190509695505050505050565b7f19457468657265756d205369676e6564204d6573736167653a0a333200000000600082015250565b6000611ce5601c83611b59565b9150611cf082611caf565b601c82019050919050565b6000819050919050565b6000819050919050565b611d20611d1b82611cfb565b611d05565b82525050565b6000611d3182611cd8565b9150611d3d8284611d0f565b60208201915081905092915050565b7f5369676e6174757265206c656e67746820696e76616c69640000000000000000600082015250565b6000611d82601883611596565b9150611d8d82611d4c565b602082019050919050565b60006020820190508181036000830152611db181611d75565b9050919050565b600060ff82169050919050565b7f4e487b7100000000000000000000000000000000000000000000000000000000600052601160045260246000fd5b6000611dff82611db8565b9150611e0a83611db8565b9250828201905060ff811115611e2357611e22611dc5565b5b92915050565b7f496e76616c696420760000000000000000000000000000000000000000000000600082015250565b6000611e5f600983611596565b9150611e6a82611e29565b602082019050919050565b60006020820190508181036000830152611e8e81611e52565b9050919050565b611e9e81611cfb565b82525050565b611ead81611db8565b82525050565b6000608082019050611ec86000830187611e95565b611ed56020830186611ea4565b611ee26040830185611e95565b611eef6060830184611e95565b95945050505050565b6000611f038261179f565b9150611f0e8361179f565b9250828202611f1c8161179f565b91508282048414831517611f3357611f32611dc5565b5b5092915050565b6000611f458261179f565b9150611f508361179f565b9250828201905080821115611f6857611f67611dc5565b5b92915050565b7f4e487b7100000000000000000000000000000000000000000000000000000000600052603260045260246000fd5b6000611fa88261179f565b915060008203611fbb57611fba611dc5565b5b600182039050919050565b611fcf8161179f565b82525050565b6000604082019050611fea6000830185611fc6565b611ff76020830184611fc6565b939250505056fea2646970667358221220b8d57c7517a692f288056eb0defedb0de503720f1a8611dc1929e006b5a882e464736f6c63430008140033",
  "linkReferences": {},
  "deployedLinkReferences": {}
}