{
  "_format": "hh-sol-artifact-1",
  "contractName": "UserContract",
  "sourceName": "contracts/UserContract.sol",
  "abi": [
    {
      "anonymous": false,
      "inputs": [
        {
          "indexed": true,
          "internalType": "address",
          "name": "userAddress",
          "type": "address"
        },
        {
          "indexed": false,
          "internalType": "string",
          "name": "username",
          "type": "string"
        }
      ],
      "name": "UserRegistered",
      "type": "event"
    },
    {
      "inputs": [
        {
          "internalType": "address",
          "name": "_userAddress",
          "type": "address"
        }
      ],
      "name": "getUser",
      "outputs": [
        {
          "components": [
            {
              "internalType": "address",
              "name": "userAddress",
              "type": "address"
            },
            {
              "internalType": "string",
              "name": "username",
              "type": "string"
            },
            {
              "internalType": "string",
              "name": "profileImageCID",
              "type": "string"
            }
          ],
          "internalType": "struct UserContract.User",
          "name": "",
          "type": "tuple"
        }
      ],
      "stateMutability": "view",
      "type": "function"
    },
    {
      "inputs": [
        {
          "internalType": "address",
          "name": "_userAddress",
          "type": "address"
        }
      ],
      "name": "isUserRegistered",
      "outputs": [
        {
          "internalType": "bool",
          "name": "",
          "type": "bool"
        }
      ],
      "stateMutability": "view",
      "type": "function"
    },
    {
      "inputs": [
        {
          "internalType": "string",
          "name": "_username",
          "type": "string"
        },
        {
          "internalType": "string",
          "name": "_profileImageCID",
          "type": "string"
        }
      ],
      "name": "register",
      "outputs": [],
      "stateMutability": "nonpayable",
      "type": "function"
    },
    {
      "inputs": [
        {
          "internalType": "address",
          "name": "",
          "type": "address"
        }
      ],
      "name": "users",
      "outputs": [
        {
          "internalType": "address",
          "name": "userAddress",
          "type": "address"
        },
        {
          "internalType": "string",
          "name": "username",
          "type": "string"
        },
        {
          "internalType": "string",
          "name": "profileImageCID",
          "type": "string"
        }
      ],
      "stateMutability": "view",
      "type": "function"
    }
  ],
  "bytecode": "0x6080604052348015600f57600080fd5b50610f628061001f6000396000f3fe608060405234801561001057600080fd5b506004361061004c5760003560e01c8063163f7522146100515780633ffbd47f146100815780636f77926b1461009d578063a87430ba146100cd575b600080fd5b61006b60048036038101906100669190610784565b6100ff565b60405161007891906107cc565b60405180910390f35b61009b6004803603810190610096919061092d565b610158565b005b6100b760048036038101906100b29190610784565b61031f565b6040516100c49190610a8a565b60405180910390f35b6100e760048036038101906100e29190610784565b610581565b6040516100f693929190610b05565b60405180910390f35b6000806000808473ffffffffffffffffffffffffffffffffffffffff1673ffffffffffffffffffffffffffffffffffffffff168152602001908152602001600020600101805461014e90610b79565b9050119050919050565b60008060003373ffffffffffffffffffffffffffffffffffffffff1673ffffffffffffffffffffffffffffffffffffffff16815260200190815260200160002060010180546101a690610b79565b9050146101e8576040517f08c379a00000000000000000000000000000000000000000000000000000000081526004016101df90610bf6565b60405180910390fd5b60405180606001604052803373ffffffffffffffffffffffffffffffffffffffff168152602001838152602001828152506000803373ffffffffffffffffffffffffffffffffffffffff1673ffffffffffffffffffffffffffffffffffffffff16815260200190815260200160002060008201518160000160006101000a81548173ffffffffffffffffffffffffffffffffffffffff021916908373ffffffffffffffffffffffffffffffffffffffff16021790555060208201518160010190816102b39190610dcc565b5060408201518160020190816102c99190610dcc565b509050503373ffffffffffffffffffffffffffffffffffffffff167f48cac28ad4dc618e15f4c2dd5e97751182f166de97b25618318b2112aa951a2f836040516103139190610e9e565b60405180910390a25050565b6103276106db565b60008060008473ffffffffffffffffffffffffffffffffffffffff1673ffffffffffffffffffffffffffffffffffffffff168152602001908152602001600020600101805461037590610b79565b9050116103b7576040517f08c379a00000000000000000000000000000000000000000000000000000000081526004016103ae90610f0c565b60405180910390fd5b6000808373ffffffffffffffffffffffffffffffffffffffff1673ffffffffffffffffffffffffffffffffffffffff1681526020019081526020016000206040518060600160405290816000820160009054906101000a900473ffffffffffffffffffffffffffffffffffffffff1673ffffffffffffffffffffffffffffffffffffffff1673ffffffffffffffffffffffffffffffffffffffff16815260200160018201805461046690610b79565b80601f016020809104026020016040519081016040528092919081815260200182805461049290610b79565b80156104df5780601f106104b4576101008083540402835291602001916104df565b820191906000526020600020905b8154815290600101906020018083116104c257829003601f168201915b505050505081526020016002820180546104f890610b79565b80601f016020809104026020016040519081016040528092919081815260200182805461052490610b79565b80156105715780601f1061054657610100808354040283529160200191610571565b820191906000526020600020905b81548152906001019060200180831161055457829003601f168201915b5050505050815250509050919050565b60006020528060005260406000206000915090508060000160009054906101000a900473ffffffffffffffffffffffffffffffffffffffff16908060010180546105ca90610b79565b80601f01602080910402602001604051908101604052809291908181526020018280546105f690610b79565b80156106435780601f1061061857610100808354040283529160200191610643565b820191906000526020600020905b81548152906001019060200180831161062657829003601f168201915b50505050509080600201805461065890610b79565b80601f016020809104026020016040519081016040528092919081815260200182805461068490610b79565b80156106d15780601f106106a6576101008083540402835291602001916106d1565b820191906000526020600020905b8154815290600101906020018083116106b457829003601f168201915b5050505050905083565b6040518060600160405280600073ffffffffffffffffffffffffffffffffffffffff16815260200160608152602001606081525090565b6000604051905090565b600080fd5b600080fd5b600073ffffffffffffffffffffffffffffffffffffffff82169050919050565b600061075182610726565b9050919050565b61076181610746565b811461076c57600080fd5b50565b60008135905061077e81610758565b92915050565b60006020828403121561079a5761079961071c565b5b60006107a88482850161076f565b91505092915050565b60008115159050919050565b6107c6816107b1565b82525050565b60006020820190506107e160008301846107bd565b92915050565b600080fd5b600080fd5b6000601f19601f8301169050919050565b7f4e487b7100000000000000000000000000000000000000000000000000000000600052604160045260246000fd5b61083a826107f1565b810181811067ffffffffffffffff8211171561085957610858610802565b5b80604052505050565b600061086c610712565b90506108788282610831565b919050565b600067ffffffffffffffff82111561089857610897610802565b5b6108a1826107f1565b9050602081019050919050565b82818337600083830152505050565b60006108d06108cb8461087d565b610862565b9050828152602081018484840111156108ec576108eb6107ec565b5b6108f78482856108ae565b509392505050565b600082601f830112610914576109136107e7565b5b81356109248482602086016108bd565b91505092915050565b600080604083850312156109445761094361071c565b5b600083013567ffffffffffffffff81111561096257610961610721565b5b61096e858286016108ff565b925050602083013567ffffffffffffffff81111561098f5761098e610721565b5b61099b858286016108ff565b9150509250929050565b6109ae81610746565b82525050565b600081519050919050565b600082825260208201905092915050565b60005b838110156109ee5780820151818401526020810190506109d3565b60008484015250505050565b6000610a05826109b4565b610a0f81856109bf565b9350610a1f8185602086016109d0565b610a28816107f1565b840191505092915050565b6000606083016000830151610a4b60008601826109a5565b5060208301518482036020860152610a6382826109fa565b91505060408301518482036040860152610a7d82826109fa565b9150508091505092915050565b60006020820190508181036000830152610aa48184610a33565b905092915050565b610ab581610746565b82525050565b600082825260208201905092915050565b6000610ad7826109b4565b610ae18185610abb565b9350610af18185602086016109d0565b610afa816107f1565b840191505092915050565b6000606082019050610b1a6000830186610aac565b8181036020830152610b2c8185610acc565b90508181036040830152610b408184610acc565b9050949350505050565b7f4e487b7100000000000000000000000000000000000000000000000000000000600052602260045260246000fd5b60006002820490506001821680610b9157607f821691505b602082108103610ba457610ba3610b4a565b5b50919050565b7f5573657220616c72656164792072656769737465726564000000000000000000600082015250565b6000610be0601783610abb565b9150610beb82610baa565b602082019050919050565b60006020820190508181036000830152610c0f81610bd3565b9050919050565b60008190508160005260206000209050919050565b60006020601f8301049050919050565b600082821b905092915050565b600060088302610c787fffffffffffffffffffffffffffffffffffffffffffffffffffffffffffffffff82610c3b565b610c828683610c3b565b95508019841693508086168417925050509392505050565b6000819050919050565b6000819050919050565b6000610cc9610cc4610cbf84610c9a565b610ca4565b610c9a565b9050919050565b6000819050919050565b610ce383610cae565b610cf7610cef82610cd0565b848454610c48565b825550505050565b600090565b610d0c610cff565b610d17818484610cda565b505050565b5b81811015610d3b57610d30600082610d04565b600181019050610d1d565b5050565b601f821115610d8057610d5181610c16565b610d5a84610c2b565b81016020851015610d69578190505b610d7d610d7585610c2b565b830182610d1c565b50505b505050565b600082821c905092915050565b6000610da360001984600802610d85565b1980831691505092915050565b6000610dbc8383610d92565b9150826002028217905092915050565b610dd5826109b4565b67ffffffffffffffff811115610dee57610ded610802565b5b610df88254610b79565b610e03828285610d3f565b600060209050601f831160018114610e365760008415610e24578287015190505b610e2e8582610db0565b865550610e96565b601f198416610e4486610c16565b60005b82811015610e6c57848901518255600182019150602085019450602081019050610e47565b86831015610e895784890151610e85601f891682610d92565b8355505b6001600288020188555050505b505050505050565b60006020820190508181036000830152610eb88184610acc565b905092915050565b7f55736572206e6f7420666f756e64000000000000000000000000000000000000600082015250565b6000610ef6600e83610abb565b9150610f0182610ec0565b602082019050919050565b60006020820190508181036000830152610f2581610ee9565b905091905056fea26469706673582212201d2a5b29ebe17e479b75ff99604c90bcc99f484dab14075a969f8efc7c2d143864736f6c634300081c0033",
  "linkReferences": {},
  "deployedLinkReferences": {}
}