{
  "_format": "hh-sol-artifact-1",
  "contractName": "UserContractMeta",
  "sourceName": "contracts/UserContractMeta.sol",
  "abi": [
    {
      "anonymous": false,
      "inputs": [
        {
          "indexed": true,
          "internalType": "address",
          "name": "userAddress",
          "type": "address"
        },
        {
          "indexed": false,
          "internalType": "string",
          "name": "username",
          "type": "string"
        },
        {
          "indexed": false,
          "internalType": "string",
          "name": "phone",
          "type": "string"
        },
        {
          "indexed": false,
          "internalType": "string",
          "name": "about",
          "type": "string"
        }
      ],
      "name": "UserRegistered",
      "type": "event"
    },
    {
      "inputs": [
        {
          "internalType": "address",
          "name": "_userAddress",
          "type": "address"
        }
      ],
      "name": "getUser",
      "outputs": [
        {
          "components": [
            {
              "internalType": "address",
              "name": "userAddress",
              "type": "address"
            },
            {
              "internalType": "string",
              "name": "username",
              "type": "string"
            },
            {
              "internalType": "string",
              "name": "phone",
              "type": "string"
            },
            {
              "internalType": "string",
              "name": "about",
              "type": "string"
            },
            {
              "internalType": "string",
              "name": "profileImageCID",
              "type": "string"
            }
          ],
          "internalType": "struct UserContractMeta.User",
          "name": "",
          "type": "tuple"
        }
      ],
      "stateMutability": "view",
      "type": "function"
    },
    {
      "inputs": [
        {
          "internalType": "string",
          "name": "_username",
          "type": "string"
        },
        {
          "internalType": "string",
          "name": "_phone",
          "type": "string"
        },
        {
          "internalType": "string",
          "name": "_about",
          "type": "string"
        },
        {
          "internalType": "string",
          "name": "_profileImageCID",
          "type": "string"
        }
      ],
      "name": "register",
      "outputs": [],
      "stateMutability": "nonpayable",
      "type": "function"
    },
    {
      "inputs": [
        {
          "internalType": "address",
          "name": "_user",
          "type": "address"
        },
        {
          "internalType": "string",
          "name": "_username",
          "type": "string"
        },
        {
          "internalType": "string",
          "name": "_phone",
          "type": "string"
        },
        {
          "internalType": "string",
          "name": "_about",
          "type": "string"
        },
        {
          "internalType": "string",
          "name": "_profileImageCID",
          "type": "string"
        },
        {
          "internalType": "bytes",
          "name": "_signature",
          "type": "bytes"
        }
      ],
      "name": "registerWithSig",
      "outputs": [],
      "stateMutability": "nonpayable",
      "type": "function"
    },
    {
      "inputs": [
        {
          "internalType": "address",
          "name": "",
          "type": "address"
        }
      ],
      "name": "users",
      "outputs": [
        {
          "internalType": "address",
          "name": "userAddress",
          "type": "address"
        },
        {
          "internalType": "string",
          "name": "username",
          "type": "string"
        },
        {
          "internalType": "string",
          "name": "phone",
          "type": "string"
        },
        {
          "internalType": "string",
          "name": "about",
          "type": "string"
        },
        {
          "internalType": "string",
          "name": "profileImageCID",
          "type": "string"
        }
      ],
      "stateMutability": "view",
      "type": "function"
    }
  ],
  "bytecode": "0x608060405234801561001057600080fd5b50611d14806100206000396000f3fe608060405234801561001057600080fd5b506004361061004c5760003560e01c80630e24c52c146100515780636f77926b1461006d578063a43039a61461009d578063a87430ba146100b9575b600080fd5b61006b60048036038101906100669190610eca565b6100ed565b005b61008760048036038101906100829190610fff565b6102f2565b6040516100949190611145565b60405180910390f35b6100b760048036038101906100b29190611208565b610678565b005b6100d360048036038101906100ce9190610fff565b61091c565b6040516100e495949392919061137a565b60405180910390f35b60008060003373ffffffffffffffffffffffffffffffffffffffff1673ffffffffffffffffffffffffffffffffffffffff168152602001908152602001600020600101805461013b90611418565b90501461017d576040517f08c379a000000000000000000000000000000000000000000000000000000000815260040161017490611495565b60405180910390fd5b6040518060a001604052803373ffffffffffffffffffffffffffffffffffffffff168152602001858152602001848152602001838152602001828152506000803373ffffffffffffffffffffffffffffffffffffffff1673ffffffffffffffffffffffffffffffffffffffff16815260200190815260200160002060008201518160000160006101000a81548173ffffffffffffffffffffffffffffffffffffffff021916908373ffffffffffffffffffffffffffffffffffffffff1602179055506020820151816001019081610254919061166b565b50604082015181600201908161026a919061166b565b506060820151816003019081610280919061166b565b506080820151816004019081610296919061166b565b509050503373ffffffffffffffffffffffffffffffffffffffff167f509c70f523067009f7db7f46db6956d7af8b679323680dc3821a8bad001ac1e18585856040516102e49392919061173d565b60405180910390a250505050565b6102fa610d2b565b60008060008473ffffffffffffffffffffffffffffffffffffffff1673ffffffffffffffffffffffffffffffffffffffff168152602001908152602001600020600101805461034890611418565b90501161038a576040517f08c379a0000000000000000000000000000000000000000000000000000000008152600401610381906117d5565b60405180910390fd5b6000808373ffffffffffffffffffffffffffffffffffffffff1673ffffffffffffffffffffffffffffffffffffffff1681526020019081526020016000206040518060a00160405290816000820160009054906101000a900473ffffffffffffffffffffffffffffffffffffffff1673ffffffffffffffffffffffffffffffffffffffff1673ffffffffffffffffffffffffffffffffffffffff16815260200160018201805461043990611418565b80601f016020809104026020016040519081016040528092919081815260200182805461046590611418565b80156104b25780601f10610487576101008083540402835291602001916104b2565b820191906000526020600020905b81548152906001019060200180831161049557829003601f168201915b505050505081526020016002820180546104cb90611418565b80601f01602080910402602001604051908101604052809291908181526020018280546104f790611418565b80156105445780601f1061051957610100808354040283529160200191610544565b820191906000526020600020905b81548152906001019060200180831161052757829003601f168201915b5050505050815260200160038201805461055d90611418565b80601f016020809104026020016040519081016040528092919081815260200182805461058990611418565b80156105d65780601f106105ab576101008083540402835291602001916105d6565b820191906000526020600020905b8154815290600101906020018083116105b957829003601f168201915b505050505081526020016004820180546105ef90611418565b80601f016020809104026020016040519081016040528092919081815260200182805461061b90611418565b80156106685780601f1061063d57610100808354040283529160200191610668565b820191906000526020600020905b81548152906001019060200180831161064b57829003601f168201915b5050505050815250509050919050565b60008060008873ffffffffffffffffffffffffffffffffffffffff1673ffffffffffffffffffffffffffffffffffffffff16815260200190815260200160002060010180546106c690611418565b905014610708576040517f08c379a00000000000000000000000000000000000000000000000000000000081526004016106ff90611841565b60405180910390fd5b60006107178787878787610b92565b9050600061072482610bce565b905060006107328285610bfe565b90508873ffffffffffffffffffffffffffffffffffffffff168173ffffffffffffffffffffffffffffffffffffffff16146107a2576040517f08c379a0000000000000000000000000000000000000000000000000000000008152600401610799906118d3565b60405180910390fd5b6040518060a001604052808a73ffffffffffffffffffffffffffffffffffffffff168152602001898152602001888152602001878152602001868152506000808b73ffffffffffffffffffffffffffffffffffffffff1673ffffffffffffffffffffffffffffffffffffffff16815260200190815260200160002060008201518160000160006101000a81548173ffffffffffffffffffffffffffffffffffffffff021916908373ffffffffffffffffffffffffffffffffffffffff1602179055506020820151816001019081610879919061166b565b50604082015181600201908161088f919061166b565b5060608201518160030190816108a5919061166b565b5060808201518160040190816108bb919061166b565b509050508873ffffffffffffffffffffffffffffffffffffffff167f509c70f523067009f7db7f46db6956d7af8b679323680dc3821a8bad001ac1e18989896040516109099392919061173d565b60405180910390a2505050505050505050565b60006020528060005260406000206000915090508060000160009054906101000a900473ffffffffffffffffffffffffffffffffffffffff169080600101805461096590611418565b80601f016020809104026020016040519081016040528092919081815260200182805461099190611418565b80156109de5780601f106109b3576101008083540402835291602001916109de565b820191906000526020600020905b8154815290600101906020018083116109c157829003601f168201915b5050505050908060020180546109f390611418565b80601f0160208091040260200160405190810160405280929190818152602001828054610a1f90611418565b8015610a6c5780601f10610a4157610100808354040283529160200191610a6c565b820191906000526020600020905b815481529060010190602001808311610a4f57829003601f168201915b505050505090806003018054610a8190611418565b80601f0160208091040260200160405190810160405280929190818152602001828054610aad90611418565b8015610afa5780601f10610acf57610100808354040283529160200191610afa565b820191906000526020600020905b815481529060010190602001808311610add57829003601f168201915b505050505090806004018054610b0f90611418565b80601f0160208091040260200160405190810160405280929190818152602001828054610b3b90611418565b8015610b885780601f10610b5d57610100808354040283529160200191610b88565b820191906000526020600020905b815481529060010190602001808311610b6b57829003601f168201915b5050505050905085565b60008585858585604051602001610bad959493929190611a0f565b60405160208183030381529060405280519060200120905095945050505050565b600081604051602001610be19190611b0c565b604051602081830303815290604052805190602001209050919050565b60006041825114610c44576040517f08c379a0000000000000000000000000000000000000000000000000000000008152600401610c3b90611b7e565b60405180910390fd5b60008060006020850151925060408501519150606085015160001a9050601b8160ff161015610c7d57601b81610c7a9190611bda565b90505b601b8160ff161480610c925750601c8160ff16145b610cd1576040517f08c379a0000000000000000000000000000000000000000000000000000000008152600401610cc890611c5b565b60405180910390fd5b60018682858560405160008152602001604052604051610cf49493929190611c99565b6020604051602081039080840390855afa158015610d16573d6000803e3d6000fd5b50505060206040510351935050505092915050565b6040518060a00160405280600073ffffffffffffffffffffffffffffffffffffffff168152602001606081526020016060815260200160608152602001606081525090565b6000604051905090565b600080fd5b600080fd5b600080fd5b600080fd5b6000601f19601f8301169050919050565b7f4e487b7100000000000000000000000000000000000000000000000000000000600052604160045260246000fd5b610dd782610d8e565b810181811067ffffffffffffffff82111715610df657610df5610d9f565b5b80604052505050565b6000610e09610d70565b9050610e158282610dce565b919050565b600067ffffffffffffffff821115610e3557610e34610d9f565b5b610e3e82610d8e565b9050602081019050919050565b82818337600083830152505050565b6000610e6d610e6884610e1a565b610dff565b905082815260208101848484011115610e8957610e88610d89565b5b610e94848285610e4b565b509392505050565b600082601f830112610eb157610eb0610d84565b5b8135610ec1848260208601610e5a565b91505092915050565b60008060008060808587031215610ee457610ee3610d7a565b5b600085013567ffffffffffffffff811115610f0257610f01610d7f565b5b610f0e87828801610e9c565b945050602085013567ffffffffffffffff811115610f2f57610f2e610d7f565b5b610f3b87828801610e9c565b935050604085013567ffffffffffffffff811115610f5c57610f5b610d7f565b5b610f6887828801610e9c565b925050606085013567ffffffffffffffff811115610f8957610f88610d7f565b5b610f9587828801610e9c565b91505092959194509250565b600073ffffffffffffffffffffffffffffffffffffffff82169050919050565b6000610fcc82610fa1565b9050919050565b610fdc81610fc1565b8114610fe757600080fd5b50565b600081359050610ff981610fd3565b92915050565b60006020828403121561101557611014610d7a565b5b600061102384828501610fea565b91505092915050565b61103581610fc1565b82525050565b600081519050919050565b600082825260208201905092915050565b60005b8381101561107557808201518184015260208101905061105a565b60008484015250505050565b600061108c8261103b565b6110968185611046565b93506110a6818560208601611057565b6110af81610d8e565b840191505092915050565b600060a0830160008301516110d2600086018261102c565b50602083015184820360208601526110ea8282611081565b915050604083015184820360408601526111048282611081565b9150506060830151848203606086015261111e8282611081565b915050608083015184820360808601526111388282611081565b9150508091505092915050565b6000602082019050818103600083015261115f81846110ba565b905092915050565b600067ffffffffffffffff82111561118257611181610d9f565b5b61118b82610d8e565b9050602081019050919050565b60006111ab6111a684611167565b610dff565b9050828152602081018484840111156111c7576111c6610d89565b5b6111d2848285610e4b565b509392505050565b600082601f8301126111ef576111ee610d84565b5b81356111ff848260208601611198565b91505092915050565b60008060008060008060c0878903121561122557611224610d7a565b5b600061123389828a01610fea565b965050602087013567ffffffffffffffff81111561125457611253610d7f565b5b61126089828a01610e9c565b955050604087013567ffffffffffffffff81111561128157611280610d7f565b5b61128d89828a01610e9c565b945050606087013567ffffffffffffffff8111156112ae576112ad610d7f565b5b6112ba89828a01610e9c565b935050608087013567ffffffffffffffff8111156112db576112da610d7f565b5b6112e789828a01610e9c565b92505060a087013567ffffffffffffffff81111561130857611307610d7f565b5b61131489828a016111da565b9150509295509295509295565b61132a81610fc1565b82525050565b600082825260208201905092915050565b600061134c8261103b565b6113568185611330565b9350611366818560208601611057565b61136f81610d8e565b840191505092915050565b600060a08201905061138f6000830188611321565b81810360208301526113a18187611341565b905081810360408301526113b58186611341565b905081810360608301526113c98185611341565b905081810360808301526113dd8184611341565b90509695505050505050565b7f4e487b7100000000000000000000000000000000000000000000000000000000600052602260045260246000fd5b6000600282049050600182168061143057607f821691505b602082108103611443576114426113e9565b5b50919050565b7f416c726561647920726567697374657265640000000000000000000000000000600082015250565b600061147f601283611330565b915061148a82611449565b602082019050919050565b600060208201905081810360008301526114ae81611472565b9050919050565b60008190508160005260206000209050919050565b60006020601f8301049050919050565b600082821b905092915050565b6000600883026115177fffffffffffffffffffffffffffffffffffffffffffffffffffffffffffffffff826114da565b61152186836114da565b95508019841693508086168417925050509392505050565b6000819050919050565b6000819050919050565b600061156861156361155e84611539565b611543565b611539565b9050919050565b6000819050919050565b6115828361154d565b61159661158e8261156f565b8484546114e7565b825550505050565b600090565b6115ab61159e565b6115b6818484611579565b505050565b5b818110156115da576115cf6000826115a3565b6001810190506115bc565b5050565b601f82111561161f576115f0816114b5565b6115f9846114ca565b81016020851015611608578190505b61161c611614856114ca565b8301826115bb565b50505b505050565b600082821c905092915050565b600061164260001984600802611624565b1980831691505092915050565b600061165b8383611631565b9150826002028217905092915050565b6116748261103b565b67ffffffffffffffff81111561168d5761168c610d9f565b5b6116978254611418565b6116a28282856115de565b600060209050601f8311600181146116d557600084156116c3578287015190505b6116cd858261164f565b865550611735565b601f1984166116e3866114b5565b60005b8281101561170b578489015182556001820191506020850194506020810190506116e6565b868310156117285784890151611724601f891682611631565b8355505b6001600288020188555050505b505050505050565b600060608201905081810360008301526117578186611341565b9050818103602083015261176b8185611341565b9050818103604083015261177f8184611341565b9050949350505050565b7f55736572206e6f7420666f756e64000000000000000000000000000000000000600082015250565b60006117bf600e83611330565b91506117ca82611789565b602082019050919050565b600060208201905081810360008301526117ee816117b2565b9050919050565b7f5573657220616c72656164792072656769737465726564000000000000000000600082015250565b600061182b601783611330565b9150611836826117f5565b602082019050919050565b6000602082019050818103600083015261185a8161181e565b9050919050565b7f5369676e617475726520696e76616c6964206f722075736572206d69736d617460008201527f6368000000000000000000000000000000000000000000000000000000000000602082015250565b60006118bd602283611330565b91506118c882611861565b604082019050919050565b600060208201905081810360008301526118ec816118b0565b9050919050565b600081905092915050565b7f52656769737465723a0000000000000000000000000000000000000000000000600082015250565b60006119346009836118f3565b915061193f826118fe565b600982019050919050565b60008160601b9050919050565b60006119628261194a565b9050919050565b600061197482611957565b9050919050565b61198c61198782610fc1565b611969565b82525050565b7f3a00000000000000000000000000000000000000000000000000000000000000600082015250565b60006119c86001836118f3565b91506119d382611992565b600182019050919050565b60006119e98261103b565b6119f381856118f3565b9350611a03818560208601611057565b80840191505092915050565b6000611a1a82611927565b9150611a26828861197b565b601482019150611a35826119bb565b9150611a4182876119de565b9150611a4c826119bb565b9150611a5882866119de565b9150611a63826119bb565b9150611a6f82856119de565b9150611a7a826119bb565b9150611a8682846119de565b91508190509695505050505050565b7f19457468657265756d205369676e6564204d6573736167653a0a333200000000600082015250565b6000611acb601c836118f3565b9150611ad682611a95565b601c82019050919050565b6000819050919050565b6000819050919050565b611b06611b0182611ae1565b611aeb565b82525050565b6000611b1782611abe565b9150611b238284611af5565b60208201915081905092915050565b7f5369676e6174757265206c656e67746820696e76616c69640000000000000000600082015250565b6000611b68601883611330565b9150611b7382611b32565b602082019050919050565b60006020820190508181036000830152611b9781611b5b565b9050919050565b600060ff82169050919050565b7f4e487b7100000000000000000000000000000000000000000000000000000000600052601160045260246000fd5b6000611be582611b9e565b9150611bf083611b9e565b9250828201905060ff811115611c0957611c08611bab565b5b92915050565b7f496e76616c696420760000000000000000000000000000000000000000000000600082015250565b6000611c45600983611330565b9150611c5082611c0f565b602082019050919050565b60006020820190508181036000830152611c7481611c38565b9050919050565b611c8481611ae1565b82525050565b611c9381611b9e565b82525050565b6000608082019050611cae6000830187611c7b565b611cbb6020830186611c8a565b611cc86040830185611c7b565b611cd56060830184611c7b565b9594505050505056fea26469706673582212205ad7456fc892d19516b7c2353ce7ce11f74a13d2f1bbde2c483fde569904375864736f6c63430008140033",
  "linkReferences": {},
  "deployedLinkReferences": {}
}